:020000040800F2
:10000000E8110020DD010008BF0F0008F90E00080C
:10001000BD0F000849020008491200080000000056
:100020000000000000000000000000004501000882
:10003000590200080000000089010008191000089A
:10004000F7010008F7010008F7010008F7010008B0
:10005000F7010008F7010008F7010008F7010008A0
:10006000F7010008F7010008F7010008F701000890
:10007000F7010008F70100084D020008F701000829
:10008000F7010008F7010008F7010008F701000870
:10009000F7010008F7010008F7010008F701000860
:1000A000F7010008F7010008F7010008F701000850
:1000B000F7010008F7010008F7010008F701000840
:1000C000F7010008F7010008F7010008F701000830
:1000D000F7010008F7010008F7010008F701000820
:1000E000F7010008F7010008F7010008F701000810
:1000F000F7010008F7010008F7010008F701000800
:10010000F7010008F7010008F7010008F7010008EF
:10011000F7010008F7010008F7010008F7010008DF
:10012000F7010008F7010008F7010008F7010008CF
:10013000DFF80CD000F076F8004800476D12000898
:10014000E8110020224B19680868B0E8F00F80F32E
:100150000988BFF36F8F4FF0000080F311884EF0D5
:100160000D0E70470000000006480068006880F32C
:10017000088862B661B6BFF34F8FBFF36F8F00DFA1
:1001800000BF00BF08ED00E0EFF30980BFF36F8F01
:100190000F4B1A6820E9F00F106008B54FF05000BF
:1001A00080F31188BFF34F8FBFF36F8F01F008FC0E
:1001B0004FF0000080F31188BDE808401968086816
:1001C000B0E8F00F80F30988BFF36F8F704700BF6E
:1001D00024000020EFF305807047000006488047A8
:1001E00006480047FEE7FEE7FEE7FEE7FEE7FEE71C
:1001F000FEE7FEE7FEE7FEE7911000083101000888
:1002000040EA01039B0703D009E008C9121F08C098
:10021000042AFAD203E011F8013B00F8013B521E18
:10022000F9D27047064C074D06E0E06840F0010344
:1002300094E8070098471034AC42F6D3FFF77CFFF0
:10024000F41C0008141D0008FEE70000014800F03F
:1002500005B80000A40D0020704700002DE9F05FF4
:10026000C16B0A6801680B68046C4FF0040808FA57
:1002700004F8844D844E854FDFF814C2DFF81492E1
:10028000DFF814A2DFF814B2DFF814E218EA020F64
:1002900065D05FEA437862D50A68920603D40A689B
:1002A00022F004020A60DFF8F0814FF480620168F6
:1002B00008F1140813011402414524D9A9420DD0B4
:1002C000B1420FD0B9421AD0614515D0494515D079
:1002D000514501D1120312E0594501D104220EE02B
:1002E000714501D140220AE06D4D1435A94206D076
:1002F0006B4A2832914201D11A4600E022466749F2
:10030000091F0A6029E0A94213D0B14215D0B942B1
:1003100020D061451BD049451BD0514502D14FF437
:10032000800217E0414502D14FF0806212E059454A
:1003300001D104220EE0714501D140220AE0584D5E
:100340001435A94206D0564A2832914201D11A46A4
:1003500000E022464B4908394A60C16A71E04FF01B
:10036000020808FA04F818EA020F70D05FEA8378EE
:100370006DD50A68920606D40A6822F00A020A605D
:10038000012180F82110DFF810814FF4007201681C
:1003900008F1140813011402414524D9A9420DD0D3
:1003A000B1420FD0B9421AD0614515D0494515D098
:1003B000514501D1120312E0594501D102220EE04C
:1003C000714501D120220AE0354D1435A94206D0ED
:1003D000334A2832914201D11A4600E022462F4981
:1003E000091F0A6029E0A94213D0B14215D0B942D1
:1003F00020D061451BD049451BD0514502D14FF457
:10040000001217E0414502D14FF0007212E0594549
:1004100001D102220EE0714501D120220AE0204DD7
:100420001435A94206D01E4A2832914201D11A46FB
:1004300000E02246134908394A60002180F8201064
:10044000816A00291CD0BDE8F05F0847FFE7082556
:10045000A540154214D01A0712D50A6822F00E02E0
:100460000A6090F84020C36B012101FA02F25A6041
:10047000816380F82110002180F82010016BE0E7F3
:10048000BDE8F09F080002401C000240300002401E
:1004900044000240580002406C0002400804024040
:1004A0001C04024030B560B11C4A03681421934219
:1004B00009D21B4A1A44B2FBF1F1890001641949BF
:1004C0000AE0012030BD154A52421A44B2FBF1F154
:1004D0008900016411490839C163022180F82110A3
:1004E0001A6843F6F0718A43F0E901142143D0E918
:1004F00002452C4321430469214344692143846913
:10050000214311431960002141628162C16201638C
:100510004163012242770177084630BD080402405A
:10052000F8FFFDBF000002402DE9F84FDFF8B8A149
:1005300000220AF1040B144601274FF00F090BF1BA
:10054000040E00BF0B6807FA04F52B40AB4274D1D0
:10055000DFF898C14E68A6EB0C0866452BD00DDC81
:10056000032E34D005DC36B3012E19D0022E2FD144
:100570001BE0112E16D0122E2AD119E0B8F5881FD3
:1005800019D006DCB8F5803F15D0B8F5801F1FD113
:1005900011E0B8F5001F0ED0B8F5041F18D10AE01D
:1005A000CA6815E0CA68121D12E0CA6808320FE076
:1005B000CA680C320CE08A682AB1012A4FF008029E
:1005C00003D0456104E0042202E0056100E000225E
:1005D000FF2B01D8064601E000F104064FEA84052E
:1005E00001D9A5F12005D6F800C009FA05F82CEAD2
:1005F000080C02FA05F54CEA050CC6F800C04D6877
:10060000ED006AD53A4DAE6946F00106AE61AD69BE
:1006100024F0030605F001050095364D06EB050CA8
:10062000DCF80850A6074FEA167809FA08F6B54331
:10063000314EB04202D100261AE04EE02F4EB042B9
:1006400001D1012614E02E4EB04201D102260FE066
:100650002C4EB04201D103260AE02B4EB04201D10C
:10066000042605E0294EB04201D1052600E0062609
:1006700006FA08F62E43CCF808604D68DAF80060F8
:10068000ED03554601D51E4300E09E432E604D68A4
:10069000AD0305D5DBF800601E43CBF8006004E035
:1006A000DBF800509D43CBF800504D68DEF8006049
:1006B000ED02754601D51E4300E09E432E604D6855
:1006C000AD0205D5084D0C352E681E432E6004E0A2
:1006D000054E0C3635689D433560641C102CFFF4C4
:1006E00031AFBDE8F88F0000000401400000111098
:1006F000001002400000014000080140000C0140D1
:10070000001001400014014000180140001C01408D
:100710000AB1016170470904FBE7000001488068E5
:1007200070470000000000200248816802781144F0
:100730008160704700000020074810B5016841F053
:1007400010010160032000F095F80F2000F006F87A
:1007500000F024F8002010BD0020024070B50D4DBF
:1007600004464FF47A712878B1FBF0F00A49096821
:10077000B1FBF0F000F024FB48B9102C07D20022A6
:100780002146501E00F056F800206C6070BD01201C
:1007900070BD000000000020700000201D4808B55A
:1007A000816941F001018161806900F001000090E0
:1007B000032000F05FF8002211466FF00B0000F0FC
:1007C00039F8002211466FF00A0000F033F80022D9
:1007D00011466FF0090000F02DF800221146501F5D
:1007E00000F028F800221146101F00F023F8002224
:1007F0000F21901E00F01EF800220F21501E00F065
:1008000019F80548416821F0E06141F080614160DC
:1008100008BD0000001002400000014000F01F026F
:10082000012191404009800000F1E020C0F8001152
:1008300070470000F0B40E4B1B680C46C3F3022354
:10084000C3F10705042D00D90425191D072901D27C
:10085000002300E0DB1E012606FA05F1491E2140B7
:1008600099409E40761E16403143F0BC00F0A8BB74
:100870000CED00E0064900F0070208684FF6FF03A0
:10088000184040EA0220034A104308607047000005
:100890000CED00E00000FA052DE9F047DFF83C819F
:1008A00005460E46D8F8000000F00700B0420CD212
:1008B000D8F8001021F007013143C8F80010D8F82B
:1008C000000000F00700B04263D12878444C800754
:1008D00005D56068A96820F0F000084360602878BA
:1008E000C00745D06868012816D02168022816D0B4
:1008F000890700294DDA616821F003010143616035
:10090000FFF70CFF6968074641F2883001290FD0D4
:100910000229814619D027E021688903E9E7890186
:10092000E7E700BFFFF7FAFEC11B494501D918E010
:1009300081466068C0F381000128F3D118E000BF50
:10094000FFF7ECFEC11B49450BD86068C0F381007E
:100950000228F5D10CE000BFFFF7E0FEC11B4945BE
:1009600002D90320BDE8F087606810F00C0FF3D1C6
:10097000D8F80010404601F00701B1420BD90168D8
:1009800021F0070131430160006800F00700B04228
:1009900001D00120E6E72878400705D56068E968BE
:1009A00020F4E060084360602878000706D560689E
:1009B000296920F4605040EAC100606000F03CF812
:1009C0006168084AC1F30311515CC84006490860D8
:1009D0000F20FFF7C3FE0020C4E700000020024004
:1009E00000100240D01C0008700000200148006880
:1009F00070470000700000200448054900684968FD
:100A0000044AC1F30221515CC840704770000020C5
:100A100000100240E01C00080448054900684968CD
:100A2000044AC1F3C221515CC840704770000020E5
:100A300000100240E01C000812A185B00FC98DE82B
:100A40000F0014A0144A006804905168134801F084
:100A50000C03042B10D0082B0ED1C1F38343C90320
:100A60001DF803000AD5516804AAC1F34041515C46
:100A70000A4A5043B0FBF1F005B0704708494843BB
:100A8000FAE7000002030405060708090A0B0C0D2B
:100A90000E0F1010010200000010024000127A0038
:100AA00000093D002DE9F84F04460078B94DC00714
:100AB00048D06868C0F38100012807D06868C0F397
:100AC0008100022809D16868C00306D52868800320
:100AD00038D5606800286FD034E06068B0F5803F9A
:100AE0000BD010B1B0F5A02F11D0286820F48030C1
:100AF0002860286820F4802002E0286840F48030D4
:100B00002860606888B1FFF709FE064609E028689A
:100B100040F480202860F0E7FFF700FE801B642887
:100B200075D828688003F7D50CE0FFF7F7FD064677
:100B300005E000BFFFF7F2FD801B6428F0D82868AD
:100B40008003F7D42078944E80074FF001094FF0CE
:100B500000083BD5686810F00C0F07D06868C0F338
:100B60008100022809D16868C00306D4286880077C
:100B700014D5206901281FD110E02069B0B1C6F852
:100B80000090FFF7CBFD074605E000BFFFF7C6FD6D
:100B9000C01B0228C4D828688007F7D52868616977
:100BA00020F0F80040EAC10028600FE0C6F800809D
:100BB000FFF7B4FD074606E0E9E000BFFFF7AEFD32
:100BC000C01B022823D828688007F7D420780007A4
:100BD0002CD57248A169D9B1C0F80090FFF79EFDED
:100BE000074604E0FFF79AFDC01B02280FD8686A89
:100BF0008007F7D56A484FF4FA510068B0FBF1F06E
:100C0000009000BF0098411E0091FAD20EE080E0F3
:100C1000C0F80080FFF782FD074604E0FFF77EFD85
:100C2000C01B022875D8686A8007F7D4207840076F
:100C300060D5E8690027C00008D4E86940F080501A
:100C4000E861E869012700F080500090554801688C
:100C5000C90513D40168834641F480710160FFF730
:100C60005DFD824606E000BFFFF758FDA0EB0A00DD
:100C700064284ED8DBF80000C005F5D5E0680128EF
:100C80000AD008B1052813D0286A20F00100286294
:100C9000286A20F0040002E0286A40F0010028627F
:100CA000E06841F2883B98B1FFF738FD82460BE0DF
:100CB000286A40F004002862EEE700BFFFF72EFD2F
:100CC000A0EB0A0159455AD8286A8007F6D50CE0EE
:100CD000FFF724FD824605E0FFF720FDA0EB0A01A7
:100CE00059454CD8286A8007F6D41FB1E86920F02E
:100CF0008050E861E06988B36968C1F38101022925
:100D000045D00228C6F8608004D0FFF707FD0446EE
:100D100038E034E0FFF702FD074604E0FFF7FEFC91
:100D2000C01B02282BD828688001F7D4206AB0F5B0
:100D3000803F05D16868A16820F4003008436860EE
:100D4000D4E908010843696821F474110843686014
:100D5000C6F86090FFF7E2FC044606E015E000BF2D
:100D6000FFF7DCFC001B022809D828688001F7D5B2
:100D70000BE000BFFFF7D2FC001B022802D90320C2
:100D8000BDE8F88F28688001F4D40020F8E701203E
:100D9000F6E7000000100240000042428004424298
:100DA00070000020007000404FF0E0210428086926
:100DB00003D020F004000861704740F00400FAE717
:100DC00010B5401EB0F1807F01D3012010BD4FF05F
:100DD000E02460610F21601700F0F2F80020A061AC
:100DE00007202061002010BD70B5040004D094F8E5
:100DF0003900002510B106E0012070BD84F838509C
:100E0000204600F023F8242084F839002068C168C7
:100E100021F40051C160204600F05EF920680169AC
:100E200021F4904101612068416921F02A0141616A
:100E30002068C16841F40051C160E563202084F856
:100E4000390084F83A00002070BD000070B50646F5
:100E500000681D4986B0884233D11C48816941F43D
:100E60008041816180691A4C00F4804004904FF405
:100E700000700090022001900320039069462046F4
:100E8000FFF752FB00252015CDE9000569462046F5
:100E90000295FFF749FB104C0E4820601020C4E972
:100EA00001058020C4E903056561A5612046E5616F
:100EB000FFF7F8FA18B1862108A000F0C6F93463EC
:100EC000666206B070BD00000038014000100240AC
:100ED0000008014044000240A40D00202E2E2F5394
:100EE00072632F73746D3332663178785F68616C2A
:100EF0005F6D73702E630000FEE7000030B52A4876
:100F000085B0816941F010018161816901F01001B2
:100F10000491816941F020018161816901F0200122
:100F20000491816941F004018161816901F004014A
:100F30000491816941F00801816180691B4D00F0D5
:100F400008004FF400540490002221462846FFF781
:100F5000DFFB0120CDE900400220039069462846CE
:100F6000FFF7E2FA4DF6FF700324CDE9000469466D
:100F70002846FFF7D9FA4FF6FF10CDE9000469467D
:100F80000B48FFF7D1FA4FF6FF70CDE90004694630
:100F90000848FFF7C9FA0420CDE90004694606486D
:100FA000FFF7C2FA05B030BD00100240001001404A
:100FB00000080140000C014000140140FEE77047AA
:100FC0000907090E002806DA00F00F0000F1E02002
:100FD00080F8141D704700F1E02080F8001470477D
:100FE0000C4C4FF400564FF4FA750122314620465E
:100FF000FFF78EFB284600F081F9284600F07EF9C5
:10100000002231462046FFF783FB284600F076F9A0
:10101000EBE700000010014010B5FFF785FBBDE8CD
:10102000104000F077B930B58FB001210804CDE948
:1010300000100024029402250491CDE907504FF4DA
:10104000E01009906846FFF72DFD00B1FEE70F2084
:10105000CDE90A054FF48060CDE90C4002210AA8D1
:101060000E94FFF719FC00B1FEE7FFF7BFFC4FF449
:101070007A71B0FBF1F0FFF7A3FE0420FFF794FEB6
:1010800000220F21501EFFF7D5FB0FB030BD00002E
:101090000D48016841F00101016041680B4A1140AF
:1010A000416001680A4A11400160016821F4802111
:1010B0000160416821F4FE0141604FF41F0181602D
:1010C0000449C00308607047001002400000FFF8A8
:1010D000FFFFF6FE08ED00E02DE9F0410446006850
:1010E0000169E26821F44051114301612169A0685E
:1010F0000843616908432168CA6841F20C639A4356
:101100000243CA6020684169A26921F44071114319
:1011100041614C4920686425322688423CD1FFF762
:101120007BFC00EBC00101EB001061688900B0FBA3
:10113000F1F7FFF771FC00EBC00101EB00106168F3
:10114000B0468900B0FBF1F0B0FBF5F06FF018018C
:10115000484307EB800106EB0110B0FBF5F000F00F
:10116000F006FFF759FC00EBC00101EB00106168CD
:101170008900B0FBF1F0B0FBF5F006EB0016FFF7CD
:101180004BFC00EBC00101EB001061688900B0FB73
:10119000F1F7FFF741FC3BE0FFF72EFC00EBC0014D
:1011A00001EB001061688900B0FBF1F7FFF724FC48
:1011B00000EBC00101EB00106168B0468900B0FB94
:1011C000F1F0B0FBF5F06FF01801484307EB800138
:1011D00006EB0110B0FBF5F000F0F006FFF70CFC99
:1011E00000EBC00101EB001061688900B0FBF1F079
:1011F000B0FBF5F006EB0016FFF7FEFB00EBC001BD
:1012000001EB001061688900B0FBF1F7FFF7F4FB18
:1012100000EBC00101EB001061688900B0FBF1F048
:10122000B0FBF5F06FF01801484307EB800108EBC5
:101230000110B0FBF5F0216800F00F003044886029
:10124000BDE8F08100380140FEE7FEE702E008C893
:10125000121F08C1002AFAD170477047002001E030
:1012600001C1121F002AFBD17047000086B0FFF7B2
:1012700063FAFFF7D8FEFFF741FE1848416941F0D5
:10128000010141614069002200F001000590052143
:101290000E20FFF7CFFA0E20FFF7C0FA11481049D1
:1012A0000C2201604FF4E131416000218160C16096
:1012B000C0E904128161C161FFF796FD00B1FEE74C
:1012C000142209496846FEF79BFF0021684600F09A
:1012D0002BF80649086000F018F8FEE700100240FD
:1012E00000380140640D0020BC1C00086C00002088
:1012F00001460020842900D0C81C704710B500B9F1
:10130000012000F0FBFA002010BD10B500F01CFB1E
:10131000002010BD10B500F0FDFB012803D0BDE892
:10132000104000F0B5BB10BD3EB504460D46B0F907
:101330000800FFF7DDFF02A9CDE90001208A2B4656
:1013400082B2D4E9001000F0B9FB012801D00020DE
:101350003EBD02983EBD00002DE9F041184C0F46FD
:101360000546E6682068001D00F012FA38B92068CA
:1013700090F82C1001208840216981432161681C6C
:1013800007D137B12168BDE8F0410E48091D00F0D2
:1013900037BA20683544B5424560216805D2A06B54
:1013A000BDE8F041091D00F013BA606B091D00F0A3
:1013B0000FFAA06A854200D2A562BDE8F081000064
:1013C00024000020500D00202DE9F041054600F0DA
:1013D00023FA2E4CA068401CA06020682C4F10B14E
:1013E000606940B32DE02560A068012829D100265E
:1013F00006EB860007EB800000F0DCF9761C072E78
:10140000F6D323488C3000F0D5F92148A03000F005
:10141000D1F91F48B43000F0CDF91D48C83000F0B4
:10142000C9F91B48DC3000F0C5F919488C306063FD
:101430001430A06305E02068E96AC06A884200D8D9
:101440002560606A401C6062E96A01202269884068
:101450001043206101EB810007EB8000291D00F0A3
:10146000CFF900F0F9F9606900280CD02068E96A2A
:10147000C06A884207D207494FF080500860BFF326
:101480004F8FBFF36F8FBDE8F08100002400002074
:10149000740C002004ED00E070B5114E114C17E003
:1014A00000F086FA3068B8B100F0A6FB00F0B4F99D
:1014B000F068C568281D00F06BF9A068401EA060A8
:1014C0006068401E606000F0C7F9284600F00CF824
:1014D00060680028E4D170BD00F08EFBF8E70000E2
:1014E0003C0D00202400002010B50446006B00F0E5
:1014F000C7F92046BDE8104000F0C2B910484FF4CB
:101500004061420706D0C01D0D4920F00700411A76
:10151000C1F540610B4A00230144C2E900030839C8
:10152000103A21F0070111604B600B600B1AC0E903
:10153000001393604FF000405360D060704700008C
:10154000740000201C000020074C4FF08056074D0F
:10155000FFF7A2FF20680128FAD92E60BFF34F8F52
:10156000BFF36F8FF4E70000740C002004ED00E07F
:101570002DE9F0479A46DDE9098481466FF00303BF
:10158000206B03EB82021044089D20F007067007D1
:1015900007D0502080F31188BFF34F8FBFF36F8FB8
:1015A000FEE723180A5C83F834200A5C12B1401C61
:1015B0001028F6D3002784F84370072D00D30625A2
:1015C000E562C4E91157201D00F0FFF804F118008E
:1015D00000F0FBF82461C5F107006462A061E764D4
:1015E00084F8507052464946304600F0BFF82060FB
:1015F000B8F1000F01D0C8F80040BDE8F087000046
:1016000030B5114900E011460A688242FBD34B68AD
:101610005C18844203D14068184448600846436817
:101620001C18944209D1084C103C2468A24209D0ED
:1016300052681A4442600A6812680260814200D00F
:10164000086030BD0460F9E71C0000200648416BCB
:10165000096829B1416BC968C968496881627047E6
:101660004FF0FF31FAE700002400002008484068EE
:10167000401C4FF0500080F3118804D0BFF34F8F0F
:10168000BFF36F8FFEE7BFF34F8FBFF36F8FFEE7A0
:10169000600000202DE9F0410546002700F088F9A0
:1016A000314E306808B9FFF729FFF06805424BD189
:1016B000C5B3083568070ED005F00700C0F1080073
:1016C0000544680707D0502080F31188BFF34F8F7F
:1016D000BFF36F8FFEE72DB37068854234D8224880
:1016E000103001460C6801E020460C466168A942B2
:1016F00002D221680029F7D131688C4224D00768D2
:101700002168016060680837411B10290FD96019F2
:10171000420708D0502080F31188BFF34F8FBFF3EA
:101720006F8FFEE710E041606560FFF769FF616859
:101730007068401A7060B268904200D2B060F06881
:1017400001430020C4E9000100F056FA780707D0F1
:10175000502080F31188BFF34F8FBFF36F8FFEE7E8
:101760003846BDE8F08100000C00002010B5031FD2
:101770004FF080741C601B1F21F001011960191FBC
:10178000024B0B60143940380A6010BD6D1600081A
:10179000D0E9013201699A60D0E901235A604A68B0
:1017A000824201D182684A60002202610868401EBC
:1017B0000860704700F108014FF0FF32C0E90112E4
:1017C000C160016100210160704700210161704723
:1017D00030B50B685A1C02D000F1080202E0026921
:1017E00004E02246546825689D42FAD953684B604C
:1017F00099608A60516008610168491C016030BDD0
:1018000042684A6093688B60936859609160086190
:101810000168491C01607047502080F31188BFF3B4
:101820004F8FBFF36F8F0A494868401C48600128FA
:101830000CD10848006810F0FF0F07D0502080F34B
:101840001188BFF34F8FBFF36F8FFEE77047000023
:101850006000002004ED00E00849486828B1401EFF
:10186000486001D180F311887047502080F31188BF
:10187000BFF34F8FBFF36F8FFEE7000060000020C3
:1018800070B5002827D0144DA0F108046168E868FD
:10189000014207D1502080F31188BFF34F8FBFF36F
:1018A0006F8FFEE722683AB1502080F31188BFF3B2
:1018B0004F8FBFF36F8FFEE78143616000F078F8D0
:1018C00060686968084468602046FFF799FEBDE8D3
:1018D000704000F091B970BD0C00002006484FF434
:1018E0007A710068B0FBF1F14FF0E020491E4161D0
:1018F00007210161704700007000002010B5020050
:1019000014D00F48006B38B1502080F31188BFF31A
:101910004F8FBFF36F8FFEE700F04AF800211046AB
:10192000FFF71AFD00F068F9002807D105494FF0CC
:1019300080500860BFF34F8FBFF36F8F10BD000062
:101940002400002004ED00E01CB515480024CDE97A
:1019500000402346802213A1144800F0AFF801286C
:1019600009D0401C1AD1502080F31188BFF34F8F4B
:10197000BFF36F8FFEE7502080F31188BFF34F8FC6
:10198000BFF36F8F06484FF0FF312C388162012181
:101990004161C460BDE81C4000F040B81CBD0000BF
:1019A0005000002049444C45000000004915000843
:1019B0000248016B491C01637047000024000020AD
:1019C0001448016B11B10121C16170470021C1614F
:1019D0000169B1FA81F1C1F11F0101EB81020E49E8
:1019E00051F822306BB101EB820101F108034A6822
:1019F00052684A609A4201D152684A60D1680160D7
:101A00007047502080F31188BFF34F8FBFF36F8F63
:101A1000FEE7000024000020740C00201CB51949CA
:101A200008780190FF20087008788DF800009DF874
:101A30000000154A00F0500010700720906005E08B
:101A40009DF800305B008DF80030401E9DF800309E
:101A50001B06F5D4000200F4E06090600198087065
:101A60000A48016841F470010160016841F0704169
:101A70000160FFF733FF00205060FEF775FB002088
:101A80001CBD000000E400E06000002020ED00E04C
:101A900010B5502080F31188BFF34F8FBFF36F8FC5
:101AA00000F046F818B104494FF08050086000205B
:101AB00080F3118810BD000004ED00E02DE9FF5F08
:101AC0008346DDE90E87994616468A469000FFF761
:101AD000E1FD05001AD05420FFF7DCFD040012D010
:101AE00025630021CDE90241CDE900874B4632460E
:101AF00051465846FFF73CFD2046FFF765FC0120A4
:101B000004B0BDE8F09F2846FFF7BAFE4FF0FF3063
:101B1000F6E700000548416919B1006B18B10020D3
:101B20007047012070470220704700002400002009
:101B30002DE9F0412E4C0027206B40B1A069401CDC
:101B4000A061E06900B101273846BDE8F081E66890
:101B5000761CE66013D1606B006838B1502080F3CA
:101B60001188BFF34F8FBFF36F8FFEE7606BA16BE0
:101B70006163A063206A401C2062FFF767FDA06AD2
:101B8000DFF87080864209D3606B006880B1606BBB
:101B9000C068C568686886420DD2A0622068C06AC5
:101BA00000EB800158F821000128CAD90127C8E7B5
:101BB0004FF0FF30F1E7281DFFF7EAFDA86A18B1E2
:101BC00005F11800FFF7E4FDE86A01212269814070
:101BD0001143216100EB800108EB8100291DFFF713
:101BE0000FFEE86A2168C96A8842CDD30127CBE796
:101BF00024000020740C00202DE9F0472C4D002417
:101C00002746286B38B1FFF707FE286B401E286374
:101C1000286B40B146E0502080F31188BFF34F8F0E
:101C2000BFF36F8FFEE7A968224E0120D1B3A6F162
:101C3000B40980463068E8B1F068C46804F118005F
:101C4000FFF7A6FD201DFFF7A3FDE06A2A6908FA49
:101C500000F11143296100EB800109EB8100211D96
:101C6000FFF7CEFDE06A2968C96A8842E2D3C5F869
:101C70001C80DFE70CB1FFF7E9FCAC6944B14646D4
:101C8000FFF756FF00B1EE61641EF9D10020A86194
:101C9000E86938B10849012738070860BFF34F8F5A
:101CA000BFF36F8FFFF7D8FD3846BDE8F08700001F
:101CB00024000020280D002004ED00E0E81C0008AE
:101CC000E10F00080000000000000000800000009C
:101CD00000000000000000000102030406070809DC
:101CE000000000000102030464656661756C7454B1
:101CF00061736B00141D00080000002074000000D8
:101D00004C120008881D00087400002074110000A7
:101D10005C1200080100000010000000000000003C
:101D200000000000000000000000000000000000B3
:101D300000000000000000000000000000000000A3
:101D40000000000000000000000000000000000093
:101D50000000000000000000000000000000000083
:101D60000000000000000000000000000000000073
:101D70000000000000000000AAAAAAAA00000000BB
:081D80000000000000A24A046B
:0400000508000131BD
:00000001FF
